S0100000746573745F4932432E7372656337
S11300000C943E000C9453000C9453000C94530035
S11300100C9453000C9453000C9453000C94530010
S11300200C9453000C9453000C9453000C94530000
S11300300C9453000C9453000C9453000C945300F0
S11300400C9453000C9453000C9453000C945300E0
S11300500C9453000C9453000C9453000C945300D0
S11300600C9453000C9453001703280339034A03D8
S11300705B036C037D038E039F03B00311241FBE37
S1130080CFEFD8E0DEBFCDBF12E0A0E0B1E0ECE5F9
S1130090F8E002C005900D92A23BB107D9F70E9487
S11300A055000C942C040C94000084B1806284B933
S11300B085B18F7D85B90E9407040E94ED0027E079
S11300C040E06FE780E00E94C000C0E0D0E004C0E0
S11300D085E50E94DF002196C11524E0D207C4F310
S11300E08FEF93ED20E3815090402040E1F700C072
S11300F000000E94F103C0E0D0E00FC00E94D403CE
S11301008C2F0E94B1028FEF99E628E18150904034
S11301102040E1F700C000002196C53BD10574F3EF
S113012085B1806285B98FEF93ED20E381509040D3
S11301302040E1F700C0000085B18F7D85B98FEFC5
S113014093ED20E3815090402040E1F700C000008F
S1130150E7CF0E94100488E70E94180408950E94C3
S113016022040895CF93C82F0E94A90080E00E9422
S113017018048C2F0E9418040E94AF00CF91089598
S11301800F931F93CF93DF93082F162FD42FC22FD3
S113019081E20E94B200802F0E94B200812F0E944F
S11301A0B20082E20E94B2008D2F0E94B2008C2F16
S11301B00E94B200DF91CF911F910F910895CF93C8
S11301C0C82F0E94A90080E40E9418048C2F0E946A
S11301D018040E94AF00CF9108958EEA0E94B200E5
S11301E085ED0E94B20080E80E94B20088EA0E9475
S11301F0B2008FE30E94B20083ED0E94B20080E05F
S11302000E94B20080E40E94B2008DE80E94B20015
S113021084E10E94B20080E20E94B20080E00E9469
S1130220B20081EA0E94B20088EC0E94B2008AED1A
S11302300E94B20082E10E94B20081E80E94B200F2
S11302408FEC0E94B20089ED0E94B20081EF0E94FF
S1130250B2008BED0E94B20080E40E94B20084EAF6
S11302600E94B20086EA0E94B2008FEA0E94B200A5
S11302700895CF92DF92EF92FF920F931F93CF9343
S1130280DF93082FD62EEA0115E0160F67E0680FFA
S1130290212F4D2D0E94C000E12CF12C12C0E881C9
S11302A0F0E0EE0FFF1FEE0FFF1FEE0FFF1FEE5CDF
S11302B0FD4FEE0DFF1D80810E94DF008FEFE81AD5
S11302C0F80A88E0E816F10454F3E12CF12C12C08A
S11302D0E981F0E0EE0FFF1FEE0FFF1FEE0FFF1F8F
S11302E0EE5CFD4FEE0DFF1D80810E94DF008FEF5D
S11302F0E81AF80A88E0E816F10454F3E12CF12C2A
S11303000FC0EA8180E1E89FF0011124EE57FE4F0F
S1130310EE0DFF1D80810E94DF008FEFE81AF80ABE
S113032080E1E816F1046CF3E12CF12C12C0EB81AE
S1130330F0E0EE0FFF1FEE0FFF1FEE0FFF1FEE5C4E
S1130340FD4FEE0DFF1D80810E94DF008FEFE81A44
S1130350F80A88E0E816F10454F3E12CF12C12C0F9
S1130360EC81F0E0EE0FFF1FEE0FFF1FEE0FFF1FFB
S1130370EE5CFD4FEE0DFF1D80810E94DF008FEFCC
S1130380E81AF80A88E0E816F10454F3212F4D2DF9
S113039067E1600F80E1800F0E94C000E12CF12C26
S11303A012C0ED81F0E0EE0FFF1FEE0FFF1FEE0F06
S11303B0FF1FEE5CFD4FEE0DFF1D80810E94DF00EC
S11303C08FEFE81AF80A88E0E816F10454F3E12CF8
S11303D0F12C12C0EE81F0E0EE0FFF1FEE0FFF1FB5
S11303E0EE0FFF1FEE5CFD4FEE0DFF1D80810E949E
S11303F0DF008FEFE81AF80A88E0E816F10454F3F6
S1130400E12CF12C0FC0EF8180E1E89FF001112471
S1130410EE57FE4FEE0DFF1D80810E94DF008FEF2F
S1130420E81AF80A80E1E816F1046CF3E12CF12CE7
S113043012C0E885F0E0EE0FFF1FEE0FFF1FEE0F76
S1130440FF1FEE5CFD4FEE0DFF1D80810E94DF005B
S11304508FEFE81AF80A88E0E816F10454F3E12C67
S1130460F12C12C0E985F0E0EE0FFF1FEE0FFF1F25
S1130470EE0FFF1FEE5CFD4FEE0DFF1D80810E940D
S1130480DF008FEFE81AF80A88E0E816F10454F365
S11304900F2EFFE0CF2EF02DC00E085F2D2D4D2D19
S11304A06C2D802F0E94C000E12CF12C12C0EA8533
S11304B0F0E0EE0FFF1FEE0FFF1FEE0FFF1FEE5CCD
S11304C0FD4FEE0DFF1D80810E94DF008FEFE81AC3
S11304D0F80A88E0E816F10454F323E02D0D42E015
S11304E04D0D6C2D802F0E94C000E12CF12C0FC00B
S11304F0EB8580E1E89FF0011124EE57FE4FEE0DED
S1130500FF1D80810E94DF008FEFE81AF80A80E166
S1130510E816F1046CF3212F412F6C2D802F0E94DB
S1130520C00000E010E011C0EC85F0E0EE0FFF1F0A
S1130530EE0FFF1FEE0FFF1FEE5CFD4FE00FF11FEC
S113054080810E94DF000F5F1F4F0830110564F3A4
S1130550DF91CF911F910F91FF90EF90DF90CF909B
S11305600895EF92FF920F931F93CF93DF93CDB72C
S1130570DEB729970FB6F894DEBF0FBECDBF853B1B
S113058008F005C199E2899F912D112492959F70DD
S11305909987382F24E6929F301911248DEC389FC7
S11305A0812D11248695869586958887482F440F3A
S11305B0242F220F220F240F321B3F83911114C0CA
S11305C0811107C084EF9FEF9A83898301E010E0D3
S11305D019C084E090E09A83898384EE9FEF9C8322
S11305E08B8302E010E00EC084E190E09A8389835B
S11305F084EF9FEF9C838B8384ED9FEF9E838D8399
S113060003E010E0E12CF12CBEC0E7E0F0E0EC0FD9
S1130610FD1FEE0DFF1DE0818E2F90E08A309105C5
S113062008F0AEC0FC01EC5CFF4F0C942604F7010B
S1130630EE0FFF1F81E090E08C0F9D1FE80FF91F64
S1130640808145E751E061E0805C0E94390198C0F7
S1130650F701EE0FFF1F81E090E08C0F9D1FE80F64
S1130660F91F808148E651E061E0805C0E94390115
S113067087C0F701EE0FFF1F81E090E08C0F9D1FF4
S1130680E80FF91F80814BE551E061E0805C0E9436
S1130690390176C0F701EE0FFF1F81E090E08C0F67
S11306A09D1FE80FF91F80814EE451E061E0805CFA
S11306B00E94390165C0F701EE0FFF1F81E090E051
S11306C08C0F9D1FE80FF91F808141E451E061E028
S11306D0805C0E94390154C0F701EE0FFF1F81E0D6
S11306E090E08C0F9D1FE80FF91F808144E351E0D7
S11306F061E0805C0E94390143C0F701EE0FFF1FE7
S113070081E090E08C0F9D1FE80FF91F808147E284
S113071051E061E0805C0E94390132C0F701EE0FC4
S1130720FF1F81E090E08C0F9D1FE80FF91F80816F
S11307304AE151E061E0805C0E94390121C0F70187
S1130740EE0FFF1F81E090E08C0F9D1FE80FF91F53
S113075080814DE051E061E0805C0E94390110C06D
S1130760F701EE0FFF1F81E090E08C0F9D1FE80F53
S1130770F91F808140E051E061E0805C0E94390112
S11307809FEFE91AF90AE016F1060CF43ECF299618
S11307900FB6F894DEBF0FBECDBFDF91CF911F918E
S11307A00F91FF90EF900895CF93DF9326E041E0FF
S11307B06BE684E10E94C0000E94A90080E40E94CC
S11307C01804C0E0D0E004C080E00E941804219620
S11307D0C03182E0D807C4F30E94AF00DF91CF910B
S11307E00895CF93DF9327E040E06FE780E00E9415
S11307F0C000C0E0D0E004C080E00E94DF00219689
S1130800C11584E0D807C4F3DF91CF910895109205
S1130810B90089E38093B80084E08093BC00089514
S113082084EA8093BC008091BC008823E4F7089597
S11308308093BB0084E88093BC008091BC00882333
S1130840E4F7089584E98093BC000895EE0FFF1F38
S10F08500590F491E02D0994F894FFCF7A
S113085C020C020F06030B000B010D060E020C0119
S113086C0C00030B000B010D060E040F0A0F0F03F3
S113087C0B090B0A0D0A0F020C010C00050F030BDC
S113088C010D060E020C020F06050F030B010D06DB
S113089C0E080C020F0F090B000B0A0F060F040FA6
S11308AC070F06030B000B010D060E040F040C00BE
S11308BC030B050F070D060E0F0F0A0F0F090B097B
S11308CC0B0A0F0A0F020C080C00030B090B010D89
S11308DC0A0EE0E0F0FFFFFFFFFF030307FFFFFF3B
S11308ECFFFFFFFFFFFFFFF0E0E0FFFFFFFFFF074D
S11308FC03037FFFFFFFFFF0E0E0000001030303AD
S113090C0303E0E0E0E0E0C08000030307FFFFFF27
S113091CFFFF0080C0E0E0E0E0E0FFFFFFFFFF0727
S113092C0303E0E0F0FFFFFFFF7F03030303030176
S113093C0000E0E0E0E0E0E0E0E003030303030395
S113094C0303C0E0E0E0E0E0E0E0010303030303A1
S113095C0303FFFFFFFFFF000000FFFFFFFFFF008B
S113096C0000000000FFFFFFFFFF000000FFFFFF7F
S113097CFFFF000000000000000000000000000069
S113098C00001F3F7FFFFFFCF8F8F8F8FCFFFF7F27
S113099C3F1FF8FCFEFFFF3F1F1F1F1F3FFFFFFE03
S11309ACFCF80E1F1F1F1F1F1F1F1F1F1F1F1F1FA2
S11309BC1F0E70F8F8F8F8F8F8F8F8F8F8F8F8F8F2
S11309CCF870FEFFFFFFFE000000000000FEFFFFBA
S11309DCFFFE0000007FFFFFFF7F000000FFFFFF12
S11309ECFFFFFFFFFFFFFF0000001F1F1F1F1F1F44
S11309FC1F1FF8F8F8F8F8F8F8F8000000000000E9
S1050A0C0000E4
S9030000FC
